:0400000054EF00F0C9
:1000080029002900290029002900290029002900A0
:100018002900290029002900290029002900290090
:100028002900290029002900290029002900290080
:1000380029002900290029009B0529002900ED0431
:100048002900290029002900290029002900290060
:100058006E042900770529002900290029002900B4
:100068002900290029002900290029002900290040
:100078002900290029002900290029002900290030
:100088002900290029002900290029002900290020
:100098002900290029002900290029002900FF003A
:1000A80027EF09F000017B51800B846F7B517B2582
:1000B8008A6F7AAF62EF00F064EF00F065EF00F04E
:1000C8008A818A51D8B46BEF00F06DEF00F080EFB1
:1000D80000F08A29D8A473EF00F075EF00F07DEFE7
:1000E80000F0000E786F000E796F000E7A6F000E28
:1000F8007B6F7A8F88EF00F0000E786F000E796FB3
:10010800000E7A6F000E7B6F7F51800B841B7F512E
:100118007F25856F7EAF93EF00F095EF00F096EFA7
:1001280000F085818551D8B49CEF00F09EEF00F077
:10013800B1EF00F08529D8A4A4EF00F0A6EF00F0F5
:10014800AEEF00F0000E7C6F000E7D6F000E7E6F2C
:10015800000E7F6F7E8FB9EF00F0000E7C6F000EEF
:100168007D6F000E7E6F000E7F6F8551D8B4BFEF94
:1001780000F0C1EF00F0C9EF00F08A51D8A4C7EF32
:1001880000F0C9EF00F0D3EF00F0000E786F000E1A
:10019800796F000E7A6F000E7B6F7DEF02F07E5153
:1001A80078036F00CCFF8FF06F00D0FF90F08F5175
:1001B800866F876B886B896B90518B6F8C6B8D6B9F
:1001C8008E6B7D5179036F00CCFF8FF06F00D0FFED
:1001D80090F08F518627000E87238823892390511A
:1001E8008B27000E8C238D238E237C517A036F007E
:1001F800CCFF8FF06F00D0FF90F08F518627000E54
:1002080087238823892390518B27000E8C238D23E5
:100218008E2388C089F087C088F086C087F0866BF7
:100228007C5179036F00CCFF8FF06F00D0FF90F006
:100238008F51862790518723000E8823000E89232B
:100248007D5178036F00CCFF8FF06F00D0FF90F0E6
:100258008F51862790518723000E8823000E89230B
:1002680088C089F087C088F086C087F0866B7C518B
:1002780078036F00CCFF8FF06F00D0FF90F08F51A4
:10028800862790518723000E8823000E89237E51EC
:1002980079036F00CCFF8FF06F00D0FF90F08F5183
:1002A8008B2790518C23000E8D23000E8E237D51B9
:1002B8007A036F00CCFF8FF06F00D0FF90F08F5162
:1002C8008B2790518C23000E8D23000E8E237E5198
:1002D8007A036F00CCFF8FF06F00D0FF90F08F5142
:1002E800806F9051816F826B836B82C083F081C075
:1002F80082F080C081F0806B80518B2781518C23E4
:1003080082518D2383518E2386C080F087C081F06F
:1003180088C082F089C083F0190E98EF01F0D89058
:100328008333823381338033E82E93EF01F0805199
:100338008B2781518C2382518D2383518E2388C032
:1003480089F087C088F086C087F0866B85518AC09F
:1003580080F0816B8027000E8123820E80258F6FAD
:10036800FF0E8121906FCEEF01F0D8908B378C373C
:100378008D378E3789AFC3EF01F0C5EF01F0C6EFB7
:1003880001F08B81D89086378737883789378F0770
:10039800D8A090078DAFD3EF01F0D5EF01F0B9EFFA
:1003A80001F0000E856F89AFDCEF01F0DEEF01F0A0
:1003B80002EF02F0FF0E8615806FFF0E8715816F22
:1003C800FF0E8815826F7F0E8915836F805181110A
:1003D80082118311D8B4F3EF01F0F5EF01F0F9EFD2
:1003E80001F0010E856F02EF02F08BA1FEEF01F024
:1003F80000EF02F002EF02F0F5EF01F08551D8B4FA
:1004080008EF02F00AEF02F02EEF02F0010E8B2740
:10041800000E8C238D238E238EA115EF02F017EF8B
:1004280002F02EEF02F08BC080F08CC081F08DC0FE
:1004380082F08EC083F083358333823381338033F7
:1004480080C08BF081C08CF082C08DF083C08EF0AC
:100458008F4B902B90BF39EF02F0905108E18F2914
:10046800D8A039EF02F03BEF02F045EF02F0000EA2
:100478008B6F000E8C6F800E8D6F7F0E8E6F73EFFB
:1004880002F090BF52EF02F0905106E18F05D8B00C
:1004980050EF02F052EF02F05EEF02F0000E8B6FA9
:1004A800000E8C6F000E8D6F000E8E6F000E846F25
:1004B80073EF02F08FC08AF0FF0E8B17FF0E8C17B8
:1004C8007F0E8D17000E8E178AA16DEF02F06FEF69
:1004D80002F070EF02F08D8FD8908A318E6F8451C0
:1004E8008E138BC078F08CC079F08DC07AF08EC0F6
:1004F8007BF01200600073F2D9FF600077F2DAFF38
:10050800DF503EEC0AF000019E6F20EE03F09C5194
:10051800D9269D51DA22DF509E19FE0B9E19DF6EF7
:1005280020EE01F09C51D9269D51DA22600073F229
:10053800E1FF600077F2E2FFE75019EC07F0DF6EA9
:10054800000120EE07F09C51D9269D51DA226F0058
:1005580078FF9EF06F0074FF9FF0D0EC0BF0000165
:100568009E516A5DA46F9F516B59A56F000EA06FD5
:1005780020EE03F09C51D9269D51DA22DFA2C7EF65
:1005880002F0C9EF02F0D6EF02F0890EA45D130E57
:10059800A559D8A0D2EF02F0D4EF02F0D6EF02F0BE
:1005A800010EA06F20EE04F09C51D9269D51DA224D
:1005B800A0B102D0DF9202D00001DF82000EA16F4D
:1005C80020EE03F09C51D9269D51DA22DFA0EFEFEF
:1005D80002F0F1EF02F001EF03F020EE01F09C5180
:1005E800D9269D51DA22DF50D8B4FDEF02F0FFEF93
:1005F80002F001EF03F0010EA16F20EE04F09C5110
:10060800D9269D51DA22A1B102D0DF9402D000018F
:10061800DF8420EE02F09C51D9269D51DA22DF506A
:10062800D8A419EF03F01BEF03F039EF03F020EE25
:1006380001F09C51D9269D51DA2210EE06F09C510A
:10064800E1269D51E2226F007FFFE7FFD0EC0BF01F
:10065800000120EE07F09C51D9269D51DA22600056
:10066800ABF1DEFF6000AFF1DDFF20EE01F09C5141
:10067800D9269D51DA22DF509E6F20EE06F09C515C
:10068800D9269D51DA22DF509F6F9F519E5D6A6F78
:100698006B6BD8A06B0758EC0BF06AC0A6F06BC068
:1006A800A7F0000E0001A26F20EE02F09C51D9269F
:1006B8009D51DA22DF50D8B464EF03F066EF03F0FF
:1006C80081EF03F0A7BF74EF03F0A75107E1050E10
:1006D800A65DD8B072EF03F074EF03F081EF03F07A
:1006E800F50EA45D010EA559D8A07DEF03F07FEFAC
:1006F80003F081EF03F0010EA26F20EE04F09C518D
:10070800D9269D51DA22A2B102D0DF9002D0000191
:10071800DF80000EA36F20EE02F09C51D9269D5178
:10072800DA22DF50D8A49BEF03F09DEF03F0A8EF87
:1007380003F0A651A711D8B4A4EF03F0A6EF03F075
:10074800A8EF03F0010EA36F20EE04F09C51D92608
:100758009D51DA22A3B102D0DF9602D00001DF86D4
:10076800CD51D8A4BAEF03F0BEEF03F09E6B9E2BD9
:10077800C0EF03F000019E6B20EE04F09C51D926D7
:100788009D51DA229E3BDF509E19EF0B9E19DF6EBA
:1007980020EE03F09C51D9269D51DA22DFA2D7EF33
:1007A80003F0D9EF03F0F7EF03F020EE05F09C51CA
:1007B800D9269D51DA22DF506A6F20EE01F09C5154
:1007C800D9269D51DA22DF50A0EC09F000016D6FA7
:1007D800600073F2D9FF600077F2DAFFDF503FEC78
:1007E80006F017EF04F09C0E6D6F600073F2D9FFEE
:1007F800600077F2DAFFDF503FEC06F0000120EEF0
:1008080003F09C51D9269D51DA22DFA00EEF04F0A7
:1008180010EF04F017EF04F020EE03F09C51D926F6
:100828009D51DA22DF8212000001726F00017251BD
:10083800D8B421EF04F023EF04F045EF04F06DBFC6
:100848002AEF04F028EF04F045EF04F06AC06EF0D8
:100858006BC06FF06CC070F06DC071F06E1F6F1FD1
:10086800701F711F6E2B000E6F23702371236EC0D3
:1008780074F06FC075F070C076F071C077F04DEF0E
:1008880004F06AC074F06BC075F06CC076F06DC08F
:1008980077F06A516B116C116D11D8A456EF04F002
:1008A80058EF04F062EF04F0000E6A6F000E6B6FF1
:1008B800000E6C6F000E6D6FF3EF04F0960E736F01
:1008C8006CEF04F0732BD890773376337533743329
:1008D800000E74156E6F000E75156F6F000E76158D
:1008E800706FFE0E7715716F6E516F117011711167
:1008F800D8A481EF04F083EF04F066EF04F091EFE1
:1009080004F0732B010E7427000E752376237723CA
:10091800D8907733763375337433000E74156E6F51
:10092800000E75156F6F000E7615706FFF0E771538
:10093800716F6E516F1170117111D8A4A6EF04F088
:10094800A8EF04F085EF04F0B0EF04F07307D89037
:10095800743775377637773776BFB5EF04F0B7EF6A
:1009680004F0BFEF04F0020E7361BDEF04F0BFEFB7
:1009780004F0AAEF04F073B1C4EF04F0C6EF04F07A
:10098800C7EF04F0769FD890733373C06EF06F6B27
:10099800706B716B6EC071F0706B6F6B6E6B6E51BC
:1009A80074136F5175137051761371517713725117
:1009B800D8B4E1EF04F0E3EF04F0EBEF04F06DBF1F
:1009C800EAEF04F0E8EF04F0EBEF04F0778F74C07F
:1009D8006AF075C06BF076C06CF077C06DF01200ED
:1009E8003A016097C496D28E100E3F6E110E406E7B
:1009F800C4EC0BF0AAEC0BF0020E3D6E0F0E3E6E2F
:100A080066EC09F0DCEC0BF0E6EC0BF013EC0BF009
:100A1800980E00016A6F010E6B6F000E6D6F400E2D
:100A28006C6FDCEC07F0D0EC0BF02C5000016A5F27
:100A38002D506B5B6B5109E1060E6A5DD8A027EF5C
:100A480005F029EF05F044EF05F0D0EC0BF06AC093
:100A58002CF06BC02DF0C20E00019C6F000E9D6F34
:100A68007EEC02F0B90E00019C6F000E9D6F7EECCB
:100A780002F03C0E00016A6F000E6B6F0DEC0AF07D
:100A8800D0EC0BF02A5000016A5F2B506B5B6B5166
:100A980009E1650E6A5DD8A054EF05F056EF05F040
:100AA80076EF05F0D0EC0BF06AC02AF06BC02BF0A3
:100AB800020E0001766F020E756F040E776FC30E7B
:100AC800786F000E796FB0EC06F0020E0001766FB9
:100AD800120E756F040E776FBA0E786F000E796F6D
:100AE800B0EC06F0D0EC0BF0285000016A5F2950FA
:100AF8006B5BF50E6A5D010E6B59D8A086EF05F0A9
:100B080088EF05F017EF05F0D0EC0BF06AC028F07D
:100B18006BC029F0BCB693EF05F096EF05F0010E17
:100B280097EF05F0000EFF0A0001A86FA847A84735
:100B3800A847BC50A819F70BA819BC6E000E376E51
:100B4800B8EC0BF06AC038F06BC039F0040E000145
:100B5800766F020E756F030E776F370E786F000E83
:100B6800796FB0EC06F017EF05F054EF00F00001D4
:100B7800933594359A6F9A51D8A4C5EF05F0C7EF0D
:100B880005F0D1EF05F0000E916F000E926F000E88
:100B9800936F000E946F3EEF06F091C095F092C0EF
:100BA80096F093C097F094C098F0200EE1EF05F00E
:100BB800D8909833973396339533E82EDCEF05F0C9
:100BC8009551996F938FFF0E9117FF0E9217FF0E95
:100BD8009317000E9417960E9A5F9ABFF8EF05F0D8
:100BE800F6EF05F00EEF06F09A51800A970FD8B08D
:100BF80000EF06F002EF06F004EF06F0C7EF05F08D
:100C0800D89094339333923391339A3F04EF06F09C
:100C180026EF06F01F0E9A6514EF06F016EF06F0A1
:100C28001EEF06F0C7EF05F0D8909137923793374B
:100C380094379A079A51D8A424EF06F026EF06F0C5
:100C480018EF06F09951D8B42CEF06F02EEF06F005
:100C580036EF06F0941F931F921F916D000E92239A
:100C68009323942391C091F092C092F093C093F093
:100C780094C094F012000001726F00016D51800A57
:100C88007F0FD8A04AEF06F04CEF06F068EF06F0A9
:100C98007205D8A452EF06F054EF06F057EF06F0AD
:100CA800BB8261EF06F0020E7219D8A45EEF06F05F
:100CB80060EF06F061EF06F0BB866D51706F716BE7
:100CC80070BF71078AEF06F07205D8A46EEF06F0C0
:100CD80070EF06F073EF06F0BB927DEF06F0020EA0
:100CE8007219D8A47AEF06F07CEF06F07DEF06F0D3
:100CF800BB966DC06EF06F6B6EBF6F076E1F6F1F78
:100D08006E4B6F2B6EC070F06FC071F0D89070375B
:100D18007137D89070377137D8907037713772053E
:100D2800D8A499EF06F09BEF06F0A2EF06F07151F8
:100D38007D6E6000C3F17CFFAFEF06F0020E721902
:100D4800D8A4A9EF06F0ABEF06F0AFEF06F07151AB
:100D5800796E9DEF06F01200390195950001CC518E
:100D68007A6F7B6BFF0E7C6FFF0E7D6FCB517E6FB2
:100D78007F6B7C517E277D517F237A517E1907E155
:100D88007B517F19D8A4CBEF06F0CDEF06F0CFEF5B
:100D980006F018EF07F0CC510B0D400EF324D96E76
:100DA800010EF420DA6E6000D7F1DEFF6000DBF19F
:100DB800DDFFCC510B0D420EF324D96E010EF42049
:100DC800DA6E6000DFF1DFFFCC510B0D430EF32428
:100DD8006A6F010EF4206B6F78C06CF079C06DF00B
:100DE80077C06EF06F6B6CEC0AF00001CC2B070E2D
:100DF800CC6501EF07F003EF07F005EF07F0000EF1
:100E0800CC6F39019585A5B50CEF07F00EEF07F00B
:100E180018EF07F03701E0B714EF07F016EF07F007
:100E280018EF07F03901A585120000019B6F00013A
:100E38009B05D8A422EF07F024EF07F04DEF07F049
:100E4800CD0E7C6FCC0E7D6FCC0E7E6F3D0E7F6F0E
:100E580030C06AF031C06BF06C6B6D6B000E18EC33
:100E680004F06AC078F06BC079F06CC07AF06DC09D
:100E78007BF056EC00F078C091F079C092F07AC01F
:100E880093F07BC094F0BBEC05F00001915180EF2A
:100E980007F0020E9B19D8A454EF07F056EF07F09D
:100EA8007FEF07F0CD0E7C6FCC0E7D6F4C0E7E6F02
:100EB8003E0E7F6F2EC06AF02FC06BF06C6B6D6BAF
:100EC800000E18EC04F06AC078F06BC079F06CC0C2
:100ED8007AF06DC07BF056EC00F078C091F079C0E4
:100EE80092F07AC093F07BC094F0BBEC05F000015F
:100EF800915180EF07F0000E1200B6EF07F020EED8
:100F080002F00150D9260250DA22030EDE18D8A4C6
:100F180090EF07F092EF07F0DBEF07F0030E0124E4
:100F2800D96E000E0220DA6E6F0078FF3AF06F007B
:100F380078FF3BF06F0074FF3CF0DBEF07F020EE2A
:100F480002F00150D9260250DA22030EDE18D8A486
:100F5800B0EF07F0B2EF07F0DBEF07F0010E366EE7
:100F6800DBEF07F0600007F0D9FF60000BF0DAFF55
:100F78006F0078FF03F06F0074FF04F00450010A5B
:100F8800D8B4CDEF07F0050AD8B4D4EF07F0DBEFFB
:100F980007F00350010AD8B483EF07F0DBEF07F03E
:100FA8000350010AD8B4A3EF07F0DBEF07F01200F3
:100FB80039019399000E0001746F6C516D11D8A41A
:100FC800E8EF07F0EAEF07F0ECEF07F031EF08F091
:100FD80033506E6F6F6BFF0E706FFF0E716F325074
:100FE800726F736B70517227715173236E5172193E
:100FF80007E16F517319D8A404EF08F006EF08F061
:1010080008EF08F031EF08F074516A25D96E000E28
:101018006B21DA6E000E3324E16EE26A010EE222E1
:101028006F007FFFE7FF332A3F0E33641EEF08F09F
:1010380020EF08F022EF08F0000E336E742B745185
:101048006E6F6F6B6C516E5D6D516F59D8A02FEF3D
:1010580008F031EF08F0ECEF07F03901938912003E
:1010680060006FF0D9FF600073F0DAFF6F0078FF5F
:101078001DF06F0074FF1EF0D8901E321D32D890FC
:101088001E321D32D8901E321D321D503701E16FBD
:1010980060006FF0D9FF600073F0DAFFDF501D6E5B
:1010A800070E1D16050E1E6ED8901D361E2E58EF03
:1010B80008F01D50E26FE297E59D20EE02F01B500C
:1010C800D9261C50DA22DF501D6EE5511D18F00B91
:1010D8001D18E56FE60E106E370E116E030E1B24F9
:1010E800126E000E1C20136E20EE02F01B50D92643
:1010F8001C50DA22DF501D6E1D50146E156A9AECD2
:101108000AF03701E0871200CAB08DEF08F092EFBD
:1011180008F00001646B642B94EF08F00001646B25
:10112800CAB299EF08F09DEF08F0656B652B9FEF49
:1011380008F00001656BD89065356411666FCAB414
:10114800A8EF08F0ACEF08F0646B642BAEEF08F082
:101158000001646BCAB6B3EF08F0B7EF08F0656B2F
:10116800652BB9EF08F00001656BD89065356411FF
:10117800676F35C01FF06651C7EC0AF00001646F55
:1011880064513026000E64BFFF0E312234C01FF0B8
:101198006751C7EC0AF00001646F64512E26000EF7
:1011A80064BFFF0E2F2266C035F067C034F012000E
:1011B8003901A5916F0008FE0CF0050E0D6ED89050
:1011C8000C320D2EE3EF08F00C506F0004FE0EF009
:1011D8000F6AD8900E360F36D8900E360F36D89044
:1011E8000E360F360E100001CE6F0F50CF6F8550A0
:1011F8000F0BD06FD10E106E000E116E860E126E90
:101208003F0E136ED0C014F0156A9AEC0AF03D50E8
:101218003E10D8B412EF09F014EF09F025EF09F0E9
:10122800CE0E016E000E026E02D825EF09F0050001
:10123800FA6E3D50FD6E3E50FE6EF850FF6EFA504D
:101248001200809E1100F20EF66E160EF76E000E5A
:10125800F86E00EE98F110EE40F009006F00D7FF2D
:10126800EEFFE550E150F9E1320EF66E170EF76E1B
:10127800000EF86E00EEA9F010EE22F009006F00E3
:10128800D7FFEEFFE550E150F9E100EE00F1980ECE
:10129800EE6AE806FDE100EECBF00E0EEE6AE80617
:1012A800FDE100EE20F01D0EEE6AE806FDE1080EF5
:1012B800D56E000ED66E000ED76E000EF86E0001C9
:1012C800F4EF04F03A01609D160EED6F609FC49E26
:1012D800BC8E330E176F8F501F0B80098F6E8E38A0
:1012E800E832070B040AD8A47CEF09F07EEF09F076
:1012F80073EF09F03701058F0351C00B0309036F22
:101308000451C70B1809046F048F0551F80B010924
:10131800056F808A808C1F0E8F168E38E832070B77
:101328000009D8A49AEF09F09CEF09F091EF09F0B1
:10133800390195819585120000016B6F00016A5192
:101348006B5D6C6F6C51800A7A0FD8A0AEEF09F014
:10135800B0EF09F0B3EF09F0810ED8EF09F06C5146
:10136800800A850FD8B0BBEF09F0BDEF09F0C0EFD8
:1013780009F07F0ED8EF09F06C51800A7F0FD8A0D2
:10138800C8EF09F0CAEF09F0CDEF09F0BA0ED8EFAF
:1013980009F06CBFD4EF09F0D2EF09F0D7EF09F0EC
:0A13A800460ED8EF09F0000E120007
:1013B4003901A39F244A252A2250245C0001686F26
:1013C40023502558696FE90E685D030E6959D8A04A
:1013D400EEEF09F0F0EF09F0F6EF09F024C022F087
:1013E40025C023F0204A212A3F504010D8B4FDEFF5
:1013F40009F0FFEF09F00CEF0AF002D80CEF0AF045
:101404000500FA6E3F50FD6E4050FE6EF850FF6EC0
:10141400FA50120011006000ABF1D9FF6000AFF187
:10142400DAFF0001DFA002D0BB8801D0BB986000C6
:10143400ABF1D9FF6000AFF1DAFF0001DFA202D007
:10144400BB8A01D0BB9A6000ABF1D9FF6000AFF159
:10145400DAFF0001DFA402D0BB8C01D0BB9C60008A
:10146400ABF1D9FF6000AFF1DAFF0001DFA602D0D3
:10147400BB8E01D0BB9E120000016A6F00016A0599
:10148400D8A447EF0AF049EF0AF055EF0AF0CAB8BA
:101494004EEF0AF051EF0AF0010E52EF0AF0000E7F
:1014A400FF0A6BEF0AF0020E6A19D8A45CEF0AF087
:1014B4005EEF0AF06AEF0AF0CABA63EF0AF066EF69
:1014C4000AF0010E67EF0AF0000EFF0A6BEF0AF054
:1014D400000E12006CC073F06DC074F06AC071F03D
:1014E4006BC072F08BEF0AF06000CFF1D9FF60009F
:1014F400D3F1DAFFDF50706F734B742B6000C7F1C8
:10150400D9FF6000CBF1DAFF6000C3F1DFFF714B5C
:10151400722B00016E07D8A06F076E2906E16F29B0
:10152400D8A497EF0AF099EF0AF076EF0AF01200C8
:1015340012C018F013C019F010C016F011C017F043
:10154400B9EF0AF0600063F0D9FF600067F0DAFFDA
:10155400DF501A6E184A192A60005BF0D9FF600048
:101564005FF0DAFF60006BF0DFFF164A172A1406FB
:10157400D8A01506142806E11528D8A4C4EF0AF04B
:10158400C6EF0AF0A4EF0AF012000001626F1F50C8
:1015940062C060F00001616BD89060376137D89009
:1015A400603761376013000E6113A90E6025D96E90
:1015B400000E6121DA6EDF50636F020E6319D8A446
:1015C400E6EF0AF0E8EF0AF0ECEF0AF0CD2B000E9C
:1015D400EDEF0AF0635112003901A5950001CC51D9
:1015E400CB19D8A4F8EF0AF0FAEF0AF0FCEF0AF0EE
:1015F40012EF0BF0CB510B0D400EF3241B6E010EBA
:10160400F4201C6E34EC08F00001CB2B070ECB65E4
:101614000EEF0BF010EF0BF012EF0BF0000ECB6F90
:101624001100010EAE6EAC508F0B3009AC6EAC8E57
:10163400F00E3A015017090E086F0A0E0A6F7E8EDB
:101644007E50F00B0C097E6E000E7D6E000E7C6EDB
:101654007A8E7A50F00B0C097A6E000E796E000EB9
:10166400786EF00EC316120033503218D8A43DEF32
:101674000BF03FEF0BF043EF0BF03901939957EF69
:101684000BF0000E3224D96EDA6A010EDA22DF5032
:101694003D01EA6F322A3F0E326453EF0BF055EFEF
:1016A4000BF057EF0BF0000E326E110000016BBF10
:1016B40066EF0BF06B5106E16A05D8B064EF0BF0EE
:1016C40066EF0BF074EF0BF06AC06CF06BC06DF05A
:1016D4006C1F6D1F6C4B6D2B6CC06AF06DC06BF092
:1016E40078EF0BF06AC06AF06BC06BF012004865CB
:1016F4006C6C6F20776F726C642120313233343517
:1017040036373839300A00000000000000000000BD
:1017140000000000000000000000000000000000C5
:1017240000000000000000000000000000000001B4
:10173400FF02FF000201010200FF02FF010002009C
:101744000000000000000001000000000000000094
:101754003D01F28B000EF66F200EF56F130E3A0169
:10176400106FC490BC803D01F38F12003901939F28
:1017740020C06CF021C06DF0938F6CC06AF06DC016
:101784006BF01200B9501F0B4009B96EB950F00B41
:101794000609B96E3901938FB88E12003901939FEF
:1017A40024C06CF025C06DF0938F6CC06AF06DC0DE
:1017B4006BF012003A01509B5099409F409DC39A90
:1017C400C398C29EC29C1200C00E3A0140173F0E3D
:0417D40041131200AB
:020000040020DA
:10000000FF0FFF0FFF0FFF0FFF0FFF0FFF0FFF0F80
:020000040030CA
:0A0000008CFFFDFC9FFFFFFFFFFFD8
:00000001FF
